:10000000D6C10000F3C10000F1C10000EFC1000043
:10001000EDC10000EBC10000E9C10000E7C1000034
:10002000E5C10000E3C10000E1C10000DFC1000044
:10003000DDC10000DBC10000D9C10000D7C1000054
:10004000D5C10000D3C10000D1C10000CFC1000064
:10005000CDC10000CBC10000C9C10000C7C1000074
:10006000C5C10000C3C10000C1C10000BFC1000084
:10007000BDC10000BBC10000B9C10000B7C1000094
:10008000B5C10000B3C10000B1C10000AFC10000A4
:100090000C94E735ABC10000A9C10000A7C1000066
:1000A000A5C10000A3C10000A1C100009FC10000C4
:1000B0009DC100009BC1000099C1000097C10000D4
:1000C00095C1000093C1000091C100008FC10000E4
:1000D0008DC100008BC1000089C1000087C10000F4
:1000E00085C100005D0D680D730D7E0D890D960DA7
:1000F000AF0DBA0DC50DD00DDB0DE60D0A0E150EB8
:10010000200E2B0E800E360E410E4E0E590E640E32
:10011000800E800E800E800E730EC30ECE0ED90E92
:10012000E40EEF0EFA0E050F100FEE1EDC1FDC1FA3
:10013000DC1FDC1FDC1FDC1FDC1FDC1FDC1FDC1FE7
:10014000DC1FDC1FDC1FDC1FDC1FF71E001FDC1F99
:10015000DC1FDC1FDC1FDC1FDC1FDC1FDC1FDC1FC7
:10016000DC1FDC1FDC1FDC1FDC1FDC1FDC1FDC1FB7
:10017000DC1FDC1FDC1FDC1FDC1FDC1FDC1FDC1FA7
:10018000DC1FDC1FDC1FDC1FDC1F091FDC1FDC1F6A
:10019000DC1FDC1FDC1FDC1FDC1FDC1FDC1FDC1F87
:1001A000DC1FDC1FDC1FDC1FDC1FDC1F121FDC1F41
:1001B000DC1FDC1FDC1FDC1FDC1FDC1FDC1FDC1F67
:1001C000DC1FDC1FDC1FDC1FDC1F1B1F241F2D1F7F
:1001D000361F3F1FB420BD20C620CF20D820E120ED
:1001E000EA20F320FC2005210E214B215421852EED
:1001F0008E2E972E9E2EA72EB02EB92EC22ECB2E2F
:10020000D22ED92E1F2F262F2D2F342F4B304E308C
:10021000553058305B3075308B3181309930BB3080
:10022000BE30C130C430C730D430E630F2301A317D
:10023000263107634236B79BD8A71A39685618AEDD
:10024000BAAB558C1D3CB7CC5763BD6DEDFD753E0B
:10025000F6177231BF000000803F08000000BE9218
:100260002449123EABAAAA2ABECDCCCC4C3E0000FB
:100270000080BEABAAAAAA3E00000000BF0000009A
:10028000803F0000000000084178D3BB4387D113B2
:100290003D190E3CC3BD4282AD2B3E68EC8276BE5A
:1002A000D98FE1A93E4C80EFFFBE01C4FF7F3F0024
:1002B0000000000000407A10F35A00A0724E1809A6
:1002C0000010A5D4E80000E87648170000E40B54BD
:1002D000020000CA9A3B000000E1F505000080968C
:1002E0009800000040420F000000A08601000000BE
:1002F000102700000000E803000000006400000078
:1003000000000A00000000000100000000002C7640
:10031000D888DC674F0823DFC1DFAE59E1B1B7965B
:10032000E5E3E453C63AE651997696E8E6C28426B8
:10033000EB898C9B62ED407C6FFCEFBC9C9F40F294
:10034000BAA56FA5F490055A2AF75C936B6CF96710
:100350006DC11BFCE0E40D47FEF520E6B500D0EDD5
:10036000902E0300943577050080841E080000203D
:100370004E0A000000C80C333333330F986E1283DB
:100380001141EF8D2114893BE65516CFFEE6DB18AF
:10039000D1844B381BF77C1D901DA4BBE424203274
:1003A00084725E228100C9F124ECA1E53D2711246D
:1003B0001FBECFEFD1E2DEBFCDBF1BE0A0E0B2E0B9
:1003C000E6E2F0E800E00BBF02C007900D92A83C07
:1003D000B107D9F72EE0A8ECBBE001C01D92AF3405
:1003E000B207E1F70E9454330C94114009CECF922A
:1003F000DF92EF92FF920F931F93CF93DF93CDB7CE
:10040000DEB7C554D1090FB6F894DEBF0FBECDBF1D
:1004100022961FAE229723961FAE239724961FAED7
:10042000249780911B0C813041F487E322968FAF93
:10043000229724968FAF249716C0823068F087E306
:1004400022968FAF229782E023968FAF239789E37E
:1004500024968FAF249707C089E192E00E946E3501
:100460000E949935E1C063E0CE018F5B9F4F0E94EF
:10047000B2368091F50B811106C00E9482368091C0
:10048000F50B8823D1F38091F50B882309F4BFC0C5
:100490008091FC0C8111BBC08091DB0C823008F490
:1004A000C3C00E94E7368AE08093EE0BA3E0BCE075
:1004B000EFE0FCE01D92EA17FB07E1F78BE19CE01F
:1004C00011928E179F07E1F70F2EF4E6EF2EFCE056
:1004D000FF2EF02DF701928184810CEF1BE020812B
:1004E000F80124839583868389E292E00E946E3529
:1004F00080E09CE00E946E35F701A085D284C48420
:1005000076856089528944893689208D928D848DC3
:10051000B681F801B783A087D186C28673876487C6
:10052000558746873787208B918B828B87EE93E0A8
:100530000E946E3583E09CE00E946E35F701A0A119
:10054000D2A0C4A076A160A552A544A536A520A935
:1005500092A984A9B68DF801B38BA48BD58AC68ADB
:10056000778B608F518F428F338F248F958F868F3B
:1005700087EE93E00E946E358FE09CE00E946E351E
:10058000F70186A925968FAF259780AD26968FAF68
:100590002697CE018C5B9F4F0E941832F801808312
:1005A000918320911B0C223091F42091DB0C21329D
:1005B00071F42091A20C30E0322F22274091A40C3C
:1005C000242B322F31703383269521702283ECEF58
:1005D000FBE023811F922F9322811F922F939F93E1
:1005E0008F938EE796E09F938F938E010F5F1F4F3F
:1005F0001F930F930E94C13AC8010E946E350E945A
:1006000099350FB6F894DEBF0FBECDBF0DC080E3A5
:1006100092E00E946E350E9499358091EE0B8823FE
:1006200019F081508093EE0BCB5BDF4F0FB6F8943F
:10063000DEBF0FBECDBFDF91CF911F910F91FF9015
:10064000EF90DF90CF900895CF93DF93CDB7DEB7D3
:1006500027970FB6F894DEBF0FBECDBF8CE392E0B4
:100660000E946E3587E3898381E08A831B821C8226
:100670001D828091B90C880F8E83885C8F8367E020
:10068000CE0101960E94B2368091F50B811106C011
:100690000E9482368091F50B8823D1F38091F50B6F
:1006A000882391F08091FC0C81110EC08AE0809328
:1006B000EE0B8091DB0C813039F48091640C811158
:1006C00003C00E94AC3509C00E94B4358091EE0B86
:1006D000882319F081508093EE0B27960FB6F8947B
:1006E000DEBF0FBECDBFDF91CF910895CF93DF93D3
:1006F00000D01F92CDB7DEB787E3898383E08A837A
:100700008AE38B8363E0CE0101960E94B23680912A
:10071000F50B811106C00E9482368091F50B88236B
:10072000D1F38091F50B882329F18091FC0C811184
:1007300021C08AE08093EE0B8091DB0C8330D1F4F2
:10074000E4E6FCE0408150E0542F44278281482BAE
:10075000E4E3FCE080E090E09A01082E02C03695C8
:1007600027950A94E2F72170219301968031910533
:1007700099F70DC08BE492E00E946E350E94993586
:100780008091EE0B882319F081508093EE0B0F902F
:100790000F900F90DF91CF910895EF92FF920F93FA
:1007A0001F93CF93DF93CDB7DEB765970FB6F8945D
:1007B000DEBF0FBECDBF87E3898384E08A83EFEA83
:1007C000FCE0808591859B838C8366817781DE0147
:1007D0001596AE014B5E5F4F2CEF3FEF03E010E04C
:1007E000FE013196C9018E1B9F0B8A0F9B1F7B0157
:1007F00002C0F694E7948A95E2F7E0FC02C0812FEC
:1008000001C0802F8D93A417B50751F780E090E0C9
:100810002191820F911DE417F507D1F78D8B65E1CA
:10082000CE0101960E94B2368091F50B811106C06F
:100830000E9482368091F50B8823D1F38EE592E0F9
:100840000E946E358091F50B882391F08091FC0C0D
:1008500081110EC08AE08093EE0B8091DB0C813019
:1008600039F48091640C811103C00E94AC3509C039
:100870000E94B4358091EE0B882319F0815080934B
:10088000EE0B65960FB6F894DEBF0FBECDBFDF91BD
:10089000CF911F910F91FF90EF900895CF93DF9329
:1008A000CDB7DEB765970FB6F894DEBF0FBECDBFEC
:1008B00087E3898384E08A831B821C82FE0135964C
:1008C000AE014B5E5F4F11924E175F07E1F7FE01DD
:1008D000319680E090E02191820F911DE417F50799
:1008E000D1F78D8B65E1CE0101960E94B2368091E1
:1008F000F50B811106C00E9482368091F50B88238A
:10090000D1F38FE692E00E946E358091F50B88233B
:1009100091F08091FC0C81110EC08AE08093EE0B67
:100920008091DB0C813039F48091640C811103C01B
:100930000E94AC3509C00E94B4358091EE0B88232B
:1009400019F081508093EE0B65960FB6F894DEBFD8
:100950000FBECDBFDF91CF9108952F923F924F925E
:100960005F926F927F928F929F92AF92BF92CF923F
:10097000DF92EF92FF920F931F93CF93DF93CDB748
:10098000DEB7CF54D1090FB6F894DEBF0FBECDBF8E
:100990002DB73EB760963FAF2EAF609787E3898350
:1009A00085E08A838CE38B8363E0CE0101960E940D
:1009B000B2368091F50B811106C00E94823680917B
:1009C000F50B8823D1F38091F50B882309F40AC134
:1009D0008091FC0C811106C18091DB0C823008F4FF
:1009E0000EC10E94E7368AE08093EE0BE4E6FCE05D
:1009F000808190E0982F88272281AC01422B2E968F
:100A00005FAF4EAF2E978091DB0C90E0019703977C
:100A10000CF4F5C00F2EF8E64F2EFCE05F2EF02D03
:100A20006894222421F8312CCE01049626969FAF9B
:100A30008EAF26976DB67EB6F201E080F12CFE2CCB
:100A4000EE248281E82AC10102976C011AF4FFEFBB
:100A5000CF1ADF0AD594C7946091200CA62EB12C32
:100A6000C50106962DB73EB7281B390B0FB6F89473
:100A70003EBF0FBE2DBF4DB75EB74F5F5F4F28968D
:100A80005FAF4EAF28974601992470E080E090E078
:100A90000E945C379B01AC0160E070E080E291E471
:100AA0000E944D382C966CAF7DAF8EAF9FAF2C97C8
:100AB000F401EE0FFF1FE55EF34F61A572A580E024
:100AC00090E00E945C372C962CAD3DAD4EAD5FADF5
:100AD0002C970E94F4362C966CAF7DAF8EAF9FAFF3
:100AE0002C9760911E0C70911F0C80E090E00E948A
:100AF0005C379B01AC012C966CAD7DAD8EAD9FAD8E
:100B00002C970E94EA3727960FAD279728961FAD9E
:100B10002897950140E050E00E94433A81E090E040
:100B200002C0880F991FCA94E2F76C012E968EAD11
:100B30009FAD2E978C219D219F938F93FF92EF92D3
:100B400028969FAD28979F932796EFAD2797EF9311
:100B5000FFEF8F1A9F0A9F928F9222E832E03F9315
:100B60002F9326965FAD26975F9325968FAD259799
:100B70008F930E94C13AEDB7FEB73C960FB6F8943A
:100B8000FEBF0FBEEDBFEF2899F481E090E0CA945C
:100B9000CD2811F080E090E02E962EAD3FAD2E973F
:100BA00082239323892B21F087E392E00E946E3504
:100BB000CE0104960E946E350E9499350FB6F894C6
:100BC0007EBE0FBE6DBE32E0230E311C8091DB0C69
:100BD00044E0440E511C90E00197281639060CF4AD
:100BE00029CF0DC089E992E00E946E350E949935A7
:100BF0008091EE0B882319F081508093EE0B609664
:100C00008EAD9FAD60970FB6F8949EBF0FBE8DBF9F
:100C1000C15BDF4F0FB6F894DEBF0FBECDBFDF91D3
:100C2000CF911F910F91FF90EF90DF90CF90BF90E9
:100C3000AF909F908F907F906F905F904F903F907C
:100C40002F900895CF93DF9300D000D000D0CDB780
:100C5000DEB790911B0C923008F455C09091ED0BCB
:100C6000923039F489EA92E00E946E350E949935FB
:100C700050C097E3998396E09A838B837C836D833E
:100C8000680F635C670F6E8366E0CE0101960E9479
:100C9000B2368091F50B811106C00E948236809198
:100CA000F50B8823D1F38EEB92E00E946E35809194
:100CB000F50B8823F1F08091FC0C81111AC08AE0B9
:100CC0008093EE0B8091640C882319F08F3F39F0EC
:100CD00009C083E08093ED0B0E94AC351AC00E94DE
:100CE000B03517C081EA94E00E946E350E949935B4
:100CF00010C00E94B4358091EE0B882351F08150D2
:100D00008093EE0B06C08BEC92E00E946E350E9441
:100D1000993526960FB6F894DEBF0FBECDBFDF9192
:100D2000CF910895CF93DF9300D000D01F92CDB71D
:100D3000DEB720911B0C223008F450C02091ED0B3F
:100D4000223039F48EED92E00E946E350E94993582
:100D50004BC027E3298327E02A839B838C83825C13
:100D6000980F9D8365E0CE0101960E94B236809176
:100D7000F50B811106C00E9482368091F50B882305
:100D8000D1F384EF92E00E946E358091F50B8823B9
:100D9000D9F08091FC0C811117C08AE08093EE0B92
:100DA0008091640C882319F08F3F21F006C00E94C7
:100DB000AC351AC00E94B03517C081EA94E00E9499
:100DC0006E350E94993510C00E94B4358091EE0BAB
:100DD000882351F081508093EE0B06C082E093E0AF
:100DE0000E946E350E9499350F900F900F900F90D2
:100DF0000F90DF91CF9108952F923F924F925F9283
:100E00006F927F928F929F92AF92BF92CF92DF921A
:100E1000EF92FF920F931F93CF93DF93CDB7DEB77F
:100E2000C954D1090FB6F894DEBF0FBECDBF2DB6A1
:100E30003EB680911B0C823008F4FFC087E32296F7
:100E40008FAF229788E023968FAF23978FE3249666
:100E50008FAF249763E0CE018F5B9F4F0E94B23625
:100E60008091F50B811106C00E9482368091F50BAE
:100E70008823D1F38091F50B882309F4D0C08091A9
:100E8000FC0C8111CCC08091650C8111C1C00E9405
:100E9000E7368AE08093EE0B8091DB0C90E00197BF
:100EA000181619060CF0B2C00F2EF4E6CF2EFCE097
:100EB000DF2EF02DE12CF12CF6018081882309F43E
:100EC00097C04DB65EB690E0982F882722813C01EE
:100ED000622A6091200C862E912CC40106962DB7B3
:100EE0003EB7281B390B0FB6F8943EBF0FBE2DBF7F
:100EF0008DB79EB7019626969FAF8EAF2697C701F6
:100F000002975C011AF4EFEFAE1ABE0AB594A794EB
:100F1000BB2470E080E090E00E945C379B01AC0154
:100F200060E070E080E291E40E944D382A966CAF58
:100F30007DAF8EAF9FAF2A97F501EE0FFF1FE55EE5
:100F4000F34F61A572A580E090E00E945C372A967D
:100F50002CAD3DAD4EAD5FAD2A970E94F4362A967A
:100F60006CAF7DAF8EAF9FAF2A9760911E0C7091D2
:100F70001F0C80E090E00E945C379B01AC012A9638
:100F80006CAD7DAD8EAD9FAD2A970E94EA37259658
:100F90000FAD259726961FAD2697940140E050E0AF
:100FA0000E94433A7F926F922696FFAD2697FF9359
:100FB00025962FAD25972F933FEFA31AB30ABF9223
:100FC000AF9286E193E09F938F9321E030E02C0F66
:100FD0003D1F3F932F930E94C13ACE0101960E947C
:100FE0006E350E9499350FB6F8945EBE0FBE4DBEA9
:100FF00032E0E30EF11C8091DB0C94E0C90ED11CB1
:1010000090E00197E816F9060CF456CFA6DC1BC059
:1010100086E293E00E946E350E94993514C082E307
:1010200093E00E946E350E9499358091EE0B8823E3
:1010300051F081508093EE0B06C08EE393E00E9446
:101040006E350E9499350FB6F8943EBE0FBE2DBE88
:10105000C75BDF4F0FB6F894DEBF0FBECDBFDF9189
:10106000CF911F910F91FF90EF90DF90CF90BF90A5
:10107000AF909F908F907F906F905F904F903F9038
:101080002F9008952F923F924F925F926F927F928E
:101090008F929F92AF92BF92CF92DF92EF92FF9288
:1010A0000F931F93CF93DF93CDB7DEB7C754D1090A
:1010B0000FB6F894DEBF0FBECDBFEDB6FEB6809181
:1010C0001B0C823008F4C6C087E322968FAF2297AC
:1010D00089E023968FAF239780E424968FAF2497DF
:1010E00063E0CE018F5B9F4F0E94B2368091F50B7B
:1010F000811106C00E9482368091F50B8823D1F3BE
:101100008091F50B882309F497C08091FC0C811124
:1011100093C08091650C811176C08DB69EB60E94F9
:10112000E7368AE08093EE0BE4E6FCE0008110E015
:10113000102F00278281082B0F2EFBE1AF2EFCE041
:10114000BF2EF02DF5016581C62ED12CC601069665
:101150002DB73EB7281B390B0FB6F8943EBF0FBE14
:101160002DBF8DB79EB701961C0170E080E090E026
:101170000E945C379B01AC0160E070E080E291E48A
:101180000E944D382B013C01F5016381748180E0A0
:1011900090E00E945C3728966CAF7DAF8EAF9FAF1A
:1011A0002897B80180E090E00E945C37A30192018B
:1011B0000E94F4369B01AC0128966CAD7DAD8EADDE
:1011C0009FAD28970E94EA37022D132D960140E02B
:1011D00050E00E94433A3F922F928CE493E09F9319
:1011E0008F938E010F5F1F4F1F930F930E94C13A81
:1011F000C8010E946E350E9499350FB6F8949EBEC4
:101200000FBE8DBE2DC08091640C81110BC086E590
:1012100093E00E946E350E94993581E08093ED0B3A
:10122000EBDD1EC080E693E00E946E350E9499358A
:1012300081E08093ED0B14C08AE693E00E946E3546
:101240000E9499358091EE0B882351F08150809354
:10125000EE0B06C086E793E00E946E350E9499353A
:101260000FB6F894FEBE0FBEEDBEC95BDF4F0FB6E2
:10127000F894DEBF0FBECDBFDF91CF911F910F91CC
:10128000FF90EF90DF90CF90BF90AF909F908F90A6
:101290007F906F905F904F903F902F900895CF93E5
:1012A000DF9300D01F92CDB7DEB795E399838A8391
:1012B0008B5C8B8363E0CE0101960E94B2368091F5
:1012C000F50B811106C00E9482368091F50B8823B0
:1012D000D1F384E893E00E946E358091F50B88236A
:1012E000A9F08091FC0C811111C08AE08093EE0B73
:1012F0008091640C811107C08091650C882319F0DE
:101300000E94AC350CC00E94B43509C00E94B435AF
:101310008091EE0B882319F081508093EE0B0F9093
:101320000F900F90DF91CF910895CF93DF9300D06E
:101330001F92CDB7DEB787E389838AE08A8381E491
:101340008B8363E0CE0101960E94B2368091F50B4B
:10135000811106C00E9482368091F50B8823D1F35B
:101360008CE893E00E946E358091F50B8823A9F0FC
:101370008091FC0C811111C08AE08093EE0B80916A
:10138000640C811107C08091650C882319F00E94BC
:10139000AC350CC00E94B43509C00E94B4358091B0
:1013A000EE0B882319F081508093EE0B0F900F9075
:1013B0000F90DF91CF9108952F923F924F925F92BD
:1013C0006F927F928F929F92AF92BF92CF92DF9255
:1013D000EF92FF920F931F93CF93DF93CDB7DEB7BA
:1013E000C255D1090FB6F894DEBF0FBECDBF6DB6A2
:1013F0007EB681E389838A8362E0CE0101960E94F2
:10140000B2368091F50B811106C00E948236809120
:10141000F50B8823D1F38091F50B882309F4ECC1F7
:101420008091FC0C8111EBC18091DB0C823008F4BF
:1014300026C20E94E7368AE08093EE0B0F2EFBE176
:10144000CF2EFCE0DF2EF02D0F2EF4E6EF2EFCE089
:10145000FF2EF02DF7018081F6018083F701828154
:1014600024968FAF2497848125968FAF2597CE0140
:101470008D5B9F4F0E941832F60192838183F701A2
:10148000068110E0102F00278085082BF6011483B9
:101490000383F7016285F6016583F701268584855C
:1014A00090E0022E02C0880F991F0A94E2F7822B67
:1014B000F60197838683F701A089B0E0BA2FAA27A7
:1014C0008289A82B0F2EF4E22F2EFCE03F2EF02D68
:1014D000F10180E090E0EE24E394F12C51E070E023
:1014E0009701082E02C0220F331F0A94E2F72A2325
:1014F0003B23452F232B09F4472F4193019680313D
:10150000910571F781E09091780C9F3F09F080E0A0
:101510008093230C8091DB0C90E001970C97A4F052
:10152000EAE7FCE0A4E4BCE02BE030E0808190E05E
:101530008D939D932F5F3F4F8091DB0C329690E00F
:1015400001972817390794F3C62ED12C2DB73EB733
:1015500063963FAF2EAF6397C6010696EDB7FEB711
:10156000E81BF90B0FB6F894FEBF0FBEEDBF2DB709
:101570003EB72F5F3F4F790170E080E090E00E941E
:101580005C379B01AC0160E070E080E291E40E9476
:101590004D384B015C01B80180E090E00E945C375F
:1015A000A50194010E94F4360E2D1F2D960140E0F6
:1015B00050E00E94433AEBE1FCE080851F928F935C
:1015C00087818F9386818F9385811F928F93FF925E
:1015D000EF9282818F9381818F9380811F928F936D
:1015E00084E993E09F938F938E010D5F1F4F1F93AC
:1015F0000F930E94C13AC8010E946E350E9499352E
:101600000E94F7018DB79EB740960FB6F8949EBF23
:101610000FBE8DBF8091FE0B813009F021C166D8CD
:101620001FC1F201019111912F010115110509F45A
:10163000CEC0EDB6FEB66091200CC62ED12CC601F0
:1016400006962DB73EB7281B390B0FB6F8943EBF50
:101650000FBE2DBF8DB79EB7019627969FAF8EAF59
:101660002797C6018396EDB7FEB7E81BF90B0FB6B7
:10167000F894FEBF0FBEEDBF2DB73EB72F5F3F4FB3
:1016800029963FAF2EAF299770E080E090E00E944E
:101690005C379B01AC0160E070E080E291E40E9465
:1016A0004D382D966CAF7DAF8EAF9FAF2D9760916B
:1016B0001E0C70911F0C80E090E00E945C376196D8
:1016C0006CAF7DAF8EAF9FAF6197B80180E090E0C7
:1016D0000E945C372D962CAD3DAD4EAD5FAD2D9784
:1016E0000E94F4369B01AC0161966CAD7DAD8EAD70
:1016F0009FAD61970E94EA3726960FAD26972796F1
:101700001FAD2797960140E050E00E94433AF10157
:1017100080811F928F93F50180859185082C02C0EE
:10172000969587950A94E2F7817099279F938F93F6
:10173000828590E0082C02C0959587950A94E2F77F
:10174000817099279F938F9384819581082C02C083
:10175000969587950A94E2F7817099279F938F93C6
:1017600082819381082C02C0969587950A94E2F7AE
:10177000817099279F938F93F10180891F928F9396
:101780002796FFAD2797FF9326962FAD26972F9389
:10179000C40101969F938F938DEA93E09F938F935B
:1017A0002996FFAD2997FF9328962FAD28972F9361
:1017B0000E94C13A28968FAD289729969FAD299708
:1017C0000E946E350FB6F894FEBE0FBEEDBE3FEF21
:1017D000831A930A8FEF281A380A90E18916910428
:1017E00009F01FCF6396EEADFFAD63970FB6F89487
:1017F000FEBF0FBEEDBF43C000E010E002C000E03E
:1018000010E00F2EF2EDCF2EF3E0DF2EF02D7E0153
:10181000F3E0EF0EF11C0F2EFDEEAF2EFBE0BF2E1E
:10182000F02D0F5F1F4F1F930F93DF92CF92FF9208
:10183000EF920E94C13AC7010E946E350E9499350D
:10184000F50181810F900F900F900F900F900F90E6
:10185000882311F0815081830330110511F70FC0E7
:101860000F2EF4E44F2EFCE05F2EF02D812C912CF6
:101870000F2EFFEAAF2EFCE0BF2EF02DD2CE0FB61A
:10188000F8947EBE0FBE6DBECE5ADF4F0FB6F894F1
:10189000DEBF0FBECDBFDF91CF911F910F91FF90A3
:1018A000EF90DF90CF90BF90AF909F908F907F9000
:1018B0006F905F904F903F902F9008950F931F93DC
:1018C000CF93DF93CDB7DEB7A2970FB6F894DEBF04
:1018D0000FBECDBF86E389838A8362E0CE01019685
:1018E0000E94B2368091F50B811106C00E948236AB
:1018F0008091F50B8823D1F38091F50B8823D9F1E2
:101900008091FC0C811137C08091DB0C833041F554
:101910000E94E7368AE08093EE0B1F921F92E4E666
:10192000FCE080818F7790E0982F88272281822B9E
:101930009F938F9389EE93E09F938F938E010D5F1A
:101940001F4F1F930F930E94C13AC8010E946E352A
:101950000E9499350FB6F894DEBF0FBECDBF18C0F8
:101960008091640C811114C08AEF93E00E946E355F
:101970000E9499350DC089E094E00E946E350E9466
:1019800099358091EE0B882319F081508093EE0BEE
:10199000A2960FB6F894DEBF0FBECDBFDF91CF91F8
:1019A0001F910F9108952F923F924F925F926F92E5
:1019B0007F928F929F92AF92BF92CF92DF92EF92DF
:1019C000FF920F931F93CF93DF93CDB7DEB7CD5820
:1019D000D1090FB6F894DEBF0FBECDBF2DB73EB70D
:1019E000C457DF4F39832883CC58D040C657DF4FC8
:1019F00039832883CA58D0408AE08093EE0BC09088
:101A0000DB0CD12CC601880F991FEDB7FEB7E81B80
:101A1000F90B0FB6F894FEBF0FBEEDBF2DB73EB762
:101A20002F5F3F4F79014091DB0C50E0440F551F71
:101A300064E67CE0C9010E94823A360131E0631A13
:101A4000710809F499C22701212C312CAE014658A6
:101A50005F4FCE57DF4F59834883C258D040CE01E5
:101A60008F5B9F4FCC57DF4F99838883C458D040FA
:101A7000F2012081822F881F8827881F21F0813062
:101A800009F471C16FC2822F82958695877081306B
:101A900009F4B2C020F0823009F448C163C2E22FD9
:101AA000EF708E2F90E0FC013197EC30F10508F0DB
:101AB00097C0EE58FF4F0C942B3A89E0E4E1F4E034
:101AC000DE01A65ABF4F01900D928A95E1F788C0BA
:101AD0008AE0EDE1F4E0DE01A65ABF4F01900D92DD
:101AE0008A95E1F77DC085E0EDE2F3E0DE01A65ADC
:101AF000BF4F01900D928A95E1F772C089E0E7E24D
:101B0000F4E0DE01A65ABF4F01900D928A95E1F7ED
:101B100067C02AE431E46C963FAF2EAF6C974DE47A
:101B200050E06E965FAF4EAF6E975AC081E08093E3
:101B3000ED0B80E394E00E946E350E9499353CDC09
:101B400080911B0C823010F00E942403B7DE80913C
:101B5000FE0B882309F41CC20E94AD0419C28CE05C
:101B6000E4E4F4E0DE01A65ABF4F01900D928A959D
:101B7000E1F736C088E0E0E5F4E0DE01A65ABF4FA9
:101B800001900D928A95E1F72BC089E0E8E5F4E039
:101B9000DE01A65ABF4F01900D928A95E1F720C051
:101BA0008AE0E1E6F4E0DE01A65ABF4F01900D9213
:101BB0008A95E1F715C087E0E6EDF4E0DE01A65A6C
:101BC000BF4F01900D928A95E1F70AC088E0EBE6DD
:101BD000F4E0DE01A65ABF4F01900D928A95E1F71D
:101BE00083E794E00E946E35CE01865A9F4F0E9493
:101BF0006E350E949935B6C1E22FEF708E2F90E0BE
:101C0000FC013197EF30F10508F07AC0E258FF4F40
:101C10000C942B3A8AE0EEE7F4E0DE01A65ABF4FBF
:101C200001900D928A95E1F775C08BE0E8E8F4E049
:101C3000DE01A65ABF4F01900D928A95E1F76AC066
:101C400085E0EDE2F3E0DE01A65ABF4F01900D9270
:101C50008A95E1F75FC08AE0EDE1F4E0DE01A65A83
:101C6000BF4F01900D928A95E1F754C089E0E4E1FD
:101C7000F4E0DE01A65ABF4F01900D928A95E1F77C
:101C800049C08AE491E46C969FAF8EAF6C97EDE407
:101C9000F0E06E96FFAFEEAF6E973CC089E0E7E2F2
:101CA000F4E0DE01A65ABF4F01900D928A95E1F74C
:101CB00031C089E0E8E5F4E0DE01A65ABF4F0190AB
:101CC0000D928A95E1F726C089E0EBEEF2E0DE01A5
:101CD000A65ABF4F01900D928A95E1F722E0EDEEF2
:101CE000FBE0208317C08AE0E3E9F4E0DE01A65AB6
:101CF000BF4F01900D928A95E1F70E94AD040AC092
:101D000088E0EDE9F4E0DE01A65ABF4F01900D92A4
:101D10008A95E1F785EA94E00E946E35CE01865AF5
:101D20009F4F0E946E350E9499351CC1E22FEF71C2
:101D30001F92EF9344EB54E05F934F93E1E0F0E0A8
:101D4000EC0FFD1FFF93EF930E94C13ACE01019665
:101D50000E946E350E9499350F900F900F900F9052
:101D60000F900F90FFC0822F807790E09595879518
:101D7000959587959595879595958795FC01E3575A
:101D8000FF4F0C942B3A88E0E0E1F5E0DE01A65825
:101D9000BF4F01900D928A95E1F74CC087E0E4E6D1
:101DA000F4E0DE01A658BF4F01900D928A95E1F74D
:101DB00041C087E0E3ECF4E0DE01A658BF4F01909C
:101DC0000D928A95E1F736C089E0EAECF4E0DE0195
:101DD000A658BF4F01900D928A95E1F72BC08AE07B
:101DE000E3EDF4E0DE01A658BF4F01900D928A9515
:101DF000E1F720C08AE0EDEDF4E0DE01A658BF4F28
:101E000001900D928A95E1F715C08BE0E7EEF4E0C2
:101E1000DE01A658BF4F01900D928A95E1F70AC0E6
:101E200087E0E2EFF4E0DE01A658BF4F01900D928B
:101E30008A95E1F76091200CA62EB12C8DB69EB646
:101E4000C50107964DB75EB7481B590B0FB6F894FE
:101E50005EBF0FBE4DBF8DB79EB701966C01E22FDE
:101E6000EF70EE2EF12C70E080E090E00E945C3785
:101E70009B01AC0160E070E080E291E40E944D388B
:101E8000CA57DF4F688379838A839B83C658D040C3
:101E9000F701EE0FFF1FE55EF34F61A572A580E02D
:101EA00090E00E945C37CA57DF4F288139814A8110
:101EB0005B81C658D0400E94F436CA57DF4F688312
:101EC00079838A839B83C658D04060911E0C7091A1
:101ED0001F0C80E090E00E945C379B01AC01CA5768
:101EE000DF4F688179818A819B81C658D0400E94EA
:101EF000EA370C2D1D2D950140E050E00E94433A39
:101F0000CD57DF4F9881C358D0409F93CE57DF4FB6
:101F1000E881C258D040EF93DF92CF92FFEFEF1AE3
:101F2000FF0AFF92EF9229EF34E03F932F93CB57B4
:101F3000DF4F5881C558D0405F93CC57DF4F888121
:101F4000C458D0408F930E94C13ACE018F5B9F4FFF
:101F50000E946E350E949935B1DC0FB6F8949EBE92
:101F60000FBE8DBE9FEF291A390AE2E04E0E511CBA
:101F70002614370408F47CCDC657DF4F28813981F9
:101F8000CA58D0400FB6F8943EBF0FBE2DBF0BC04D
:101F9000C657DF4F48815981CA58D0400FB6F894D0
:101FA0005EBF0FBE4DBFC457DF4F88819981CC58AB
:101FB000D0400FB6F8949EBF0FBE8DBFC357DF4F02
:101FC0000FB6F894DEBF0FBECDBFDF91CF911F914A
:101FD0000F91FF90EF90DF90CF90BF90AF909F90C8
:101FE0008F907F906F905F904F903F902F900895CB
:101FF0002F923F924F925F926F927F928F929F9219
:10200000AF92BF92CF92DF92EF92FF920F931F9306
:10201000CF93DF93CDB7DEB7A8970FB6F894DEBFA6
:102020000FBECDBFF82ED62EC42EB22EA02E6DB66A
:102030007EB621E0E21210C081E090E02FEF2F0D7C
:1020400002C0880F991F2A95E2F72091AF0C3091BA
:10205000B00C822B932B11C081E090E02FEF2F0D5D
:1020600002C0880F991F2A95E2F7809590952091DC
:10207000AF0C3091B00C822393239093B00C8093DB
:10208000AF0C31E0D31210C081E090E02FEF2F0DA4
:1020900002C0880F991F2A95E2F72091B10C309168
:1020A000B20C822B932B11C081E090E02FEF2F0D0B
:1020B00002C0880F991F2A95E2F78095909520918C
:1020C000B10C3091B20C822393239093B20C809385
:1020D000B10C81E0C81210C081E090E02FEF2F0D0D
:1020E00002C0880F991F2A95E2F72091B30C309116
:1020F000B40C822B932B11C081E090E02FEF2F0DB9
:1021000002C0880F991F2A95E2F78095909520913B
:10211000B30C3091B40C822393239093B40C80932E
:10212000B30C91E0B91210C081E090E02FEF2F0DB9
:1021300002C0880F991F2A95E2F72091B50C3091C3
:10214000B60C822B932B11C081E090E02FEF2F0D66
:1021500002C0880F991F2A95E2F7809590952091EB
:10216000B50C3091B60C822393239093B60C8093D8
:10217000B50CE1E0AE1210C081E090E02FEF2F0D22
:1021800002C0880F991F2A95E2F72091B70C309171
:10219000B80C822B932B11C081E090E02FEF2F0D14
:1021A00002C0880F991F2A95E2F78095909520919B
:1021B000B70C3091B80C822393239093B80C809382
:1021C000B70C0E94DE340BE11CE0F8016581862E1D
:1021D000912CC40107962DB73EB7281B390B0FB6BB
:1021E000F8943EBF0FBE2DBF8DB79EB701962C0150
:1021F0002F2C312C70E080E090E00E945C379B0136
:10220000AC0160E070E080E291E40E944D386DA383
:102210007EA38FA398A7F101EE0FFF1FE75EF34F98
:1022200061A572A580E090E00E945C372DA13EA1DF
:102230004FA158A50E94F4366DA37EA38FA398A743
:10224000F8016381748180E090E00E945C379B011B
:10225000AC016DA17EA18FA198A50E94EA37042D43
:10226000152D940140E050E00E94433A81E090E057
:10227000E81280E09F938F9381E090E0A81280E0C5
:102280009F938F9381E090E0B81280E09F938F93AB
:1022900081E090E0C81280E09F938F9381E090E00E
:1022A000D81280E09F938F935F924F921F92FF927C
:1022B00088E195E09F938F938E010F5F1F4F1F93CF
:1022C0000F930E94C13AC8010E946E350E94AC353E
:1022D0002DB73EB72E5E3F4F0FB6F8943EBF0FBEF0
:1022E0002DBF0FB6F8947EBE0FBE6DBEA8960FB67A
:1022F000F894DEBF0FBECDBFDF91CF911F910F913C
:10230000FF90EF90DF90CF90BF90AF909F908F9015
:102310007F906F905F904F903F902F900895CF9354
:10232000DF9300D000D000D0CDB7DEB784E389833F
:10233000EFEAFCE0328123812A833B83848195810B
:102340009C838D83830F8C5C820F980F9E8366E045
:10235000CE0101960E94B2368091F50B811106C024
:102360000E9482368091F50B8823D1F389E395E0B2
:102370000E946E358091F50B8823E1F08091FC0C72
:10238000811118C08AE08093EE0B8091DB0C8130C4
:1023900089F48091640C81110DC00E94AC3580914C
:1023A000B90C882381F08091FE0B882361F00E9494
:1023B000CD0309C00E94B4358091EE0B882319F03B
:1023C00081508093EE0B26960FB6F894DEBF0FBEB9
:1023D000CDBFDF91CF910895CF93DF9300D000D090
:1023E00000D0CDB7DEB784E389831A821B821C82BA
:1023F0001D828E8366E0CE0101960E94B2368091E6
:10240000F50B811106C00E9482368091F50B88235E
:10241000D1F384E495E00E946E358091F50B88231A
:10242000E1F08091FC0C811118C08AE08093EE0BE2
:102430008091DB0C813089F48091640C81110DC096
:102440000E94AC358091B90C882381F08091FE0BFD
:10245000882361F00E944E0409C00E94B435809127
:10246000EE0B882319F081508093EE0B26960FB661
:10247000F894DEBF0FBECDBFDF91CF91089591E0FC
:10248000813009F090E09093B90C0C94DE340895FB
:102490002F923F924F925F926F927F928F929F9274
:1024A000AF92BF92CF92DF92FF920F931F93CF9381
:1024B000DF93CDB7DEB7CE55D1090FB6F894DEBFA6
:1024C0000FBECDBF6DB67EB689E089838A8362E098
:1024D000CE0101960E94B2368091F50B811106C0A3
:1024E0000E9482368091F50B8823D1F38091F50B01
:1024F000882309F47EC18091FC0C81117AC18091FE
:10250000DB0C823008F482C10E94E73685E08093BC
:102510007D0D0F2EFEE7CF2EFDE0DF2EF02D04E621
:102520001CE0F8018081F6018083F80182816496C5
:102530008FAF6497848165968FAF6597CE018D5A72
:102540009F4F0E941832F60192838183F801F68032
:10255000F601F382F8016085F6016483F801A28533
:10256000B0E0BA2FAA278485A82B0F2EF3E82F2ED0
:10257000FDE03F2EF02DF10180E090E001E010E061
:1025800051E070E09801082E02C0220F331F0A9418
:10259000E2F72A233B23452F232B09F4472F4193AE
:1025A00001968031910571F78091DB0C90E00197E5
:1025B000089794F0E2E7FCE0A3E9BDE027E030E013
:1025C00080818D932F5F3F4F8091DB0C329690E09E
:1025D000019728173907A4F3A62EB12C2DB73EB7C3
:1025E0006F963FAF2EAF6F97C5010596EDB7FEB75B
:1025F000E81BF90B0FB6F894FEBF0FBEEDBF2DB769
:102600003EB72F5F3F4F690170E080E090E00E948D
:102610005C379B01AC0160E070E080E291E40E94D5
:102620004D3869966CAF7DAF8EAF9FAF69976F2DB8
:1026300070E080E090E00E945E3769962CAD3DAD81
:102640004EAD5FAD69970E94F4360C2D1D2D95019E
:1026500040E050E00E94433ADF92CF92EEE7FDE087
:1026600082818F9381818F9380811F928F9380E5E8
:1026700095E09F938F938E010D5F1F4F1F930F93D4
:102680000E94C13AC8010E946E358DB79EB70A9666
:102690000FB6F8949EBF0FBE8DBF412C512CF42C69
:1026A000F10181911F01FFEF4F1A5F0A813009F09C
:1026B00091C08DB69EB66091820DA62EB12CC5013B
:1026C0000A962DB73EB7281B390B0FB6F8943EBFBC
:1026D0000FBE2DBF8DB79EB7019667969FAF8EAF89
:1026E0006797C5014C96EDB7FEB7E81BF90B0FB61F
:1026F000F894FEBF0FBEEDBF2DB73EB72F5F3F4F23
:10270000690170E080E090E00E945C379B01AC01C1
:1027100060E070E080E291E40E944D386D966CAF0D
:102720007DAF8EAF9FAF6D978091810DF101678571
:10273000869FB0011124072E000C880B990B0E9474
:102740005E376D962CAD3DAD4EAD5FAD6D970E9481
:10275000F43666960FAD669767961FAD679795013D
:1027600040E050E00E94433A8091F90B9091FA0BBF
:102770000F2C02C0969587950A94E2F781709927ED
:102780009F938F93E7EFFBE08081918102C0969544
:102790008795FA94E2F7817099279F938F936796B4
:1027A000FFAD6797FF9366962FAD66972F935F9265
:1027B0004F9282E695E09F938F93DF92CF920E9493
:1027C000C13A8C2D9D2D0E946E350FB6F8949EBE99
:1027D0000FBE8DBEF0E14F16510409F060CF6F9629
:1027E0002EAD3FAD6F970FB6F8943EBF0FBE2DBF15
:1027F0000DC08BE795E00E946E350E94993580915F
:102800007D0D882319F0815080937D0D0FB6F894CB
:102810007EBE0FBE6DBEC25ADF4F0FB6F894DEBF4C
:102820000FBECDBFDF91CF911F910F91FF90DF9031
:10283000CF90BF90AF909F908F907F906F905F9060
:102840004F903F902F9008952F923F924F925F921A
:102850006F927F928F929F92AF92BF92CF92DF92B0
:10286000EF92FF920F931F93CF93DF93CDB7DEB715
:10287000AE970FB6F894DEBF0FBECDBF2DB73EB7F3
:102880003EA72DA78AE089838A8362E0CE01019664
:102890000E94B2368091F50B811106C00E948236EB
:1028A0008091F50B8823D1F38091F50B882309F4EF
:1028B000EAC08091FC0C8111E6C08091DB0C823073
:1028C00008F4EEC00E94E73685E080937D0DE4E6D3
:1028D000FCE0808190E0982F882722817C01E22A09
:1028E0008091DB0C90E0019703970CF4D9C00F2E78
:1028F000F8E6CF2EFCE0DF2EF02D0F2EF3E96F2E41
:10290000FDE07F2EF02D212C312C44244394512CBA
:10291000CE0103969CA38BA3D8A6CFA2F6018081FB
:10292000811112C0C2019201022C02C0220F331F7A
:102930000A94E2F72130310511F080E090E08E2119
:102940009F21892B09F48AC08DB69EB66091820DB5
:10295000A62EB12CC50105962DB73EB7281B390B05
:102960000FB6F8943EBF0FBE2DBF8DB79EB7019630
:102970009EA38DA370E080E090E00E945C379B01F5
:10298000AC0160E070E080E291E40E944D3869A7FC
:102990007AA78BA79CA78091810DF3016081869F08
:1029A000B0011124072E000C880B990B0E945E3792
:1029B00029A53AA54BA55CA50E94F4360DA11EA140
:1029C000950140E050E00E94433A5201022C02C0BF
:1029D000AA0CBB1C0A94E2F7C5018E219F219F938C
:1029E0008F93EFA1F8A580811F928F93FEA1FF9393
:1029F0002DA12F93C10101969F938F9385E895E0B8
:102A00009F938F93FCA1FF932BA12F930E94C13A18
:102A10008DB79EB70C960FB6F8949EBF0FBE8DBFB4
:102A2000EFA1F8A5808181110EC0C201AA94AB2844
:102A300011F080E090E08E219F21892B21F087E327
:102A400092E00E946E35CE0103960E946E350E9480
:102A500099350FB6F8949EBE0FBE8DBE91012D5FC5
:102A60003F4F8091DB0C9FEF291A390AE2E0CE0E2E
:102A7000D11CFFEF6F1A7F0A90E0019728173907E2
:102A80000CF44ACF0DC089E995E00E946E350E9492
:102A9000993580917D0D882319F0815080937D0DAB
:102AA0002DA53EA50FB6F8943EBF0FBE2DBFAE9626
:102AB0000FB6F894DEBF0FBECDBFDF91CF911F914F
:102AC0000F91FF90EF90DF90CF90BF90AF909F90CD
:102AD0008F907F906F905F904F903F902F900895D0
:102AE0002F923F924F925F926F927F928F929F921E
:102AF000BF92CF92DF92EF92FF920F931F93CF93EB
:102B0000DF9300D000D0CDB7DEB7D82EC62EB42EBE
:102B10006DB67EB68091820D90E04B962DB73EB794
:102B2000281B390B0FB6F8943EBF0FBE2DBF8DB7D3
:102B30009EB701967C0191E0691310C081E090E09E
:102B40002FEF2D0D02C0880F991F2A95E2F72091D3
:102B5000F70B3091F80B822B932B11C081E090E0A2
:102B60002FEF2D0D02C0880F991F2A95E2F780954F
:102B700090952091F70B3091F80B8223932390933B
:102B8000F80B8093F70BE1E0BE1210C081E090E0FB
:102B90002FEF2D0D02C0880F991F2A95E2F7209183
:102BA000F90B3091FA0B822B932B11C081E090E04E
:102BB0002FEF2D0D02C0880F991F2A95E2F78095FF
:102BC00090952091F90B3091FA0B822393239093E7
:102BD000FA0B8093F90B0E9498340EE71DE0F80180
:102BE0006481862E912CC40105962DB73EB7281B13
:102BF000390B0FB6F8943EBF0FBE2DBF8DB79EB7F1
:102C000001962C012D2C312C70E080E090E00E9488
:102C10005C379B01AC0160E070E080E291E40E94CF
:102C20004D3869837A838B839C83F101E258F24F9C
:102C30008489F8016381869FB0011124072E000C5E
:102C4000880B990B0E945E3729813A814B815C8108
:102C50000E94F436042D152D940140E050E00E94AE
:102C6000433A81E090E0B81280E09F938F9381E037
:102C700090E0C81280E09F938F935F924F921F92D3
:102C8000DF9283EA95E09F938F93FF92EF920E94E9
:102C9000C13A8E2D9F2D0E946E350E94AC352DB706
:102CA0003EB7245F3F4F0FB6F8943EBF0FBE2DBF17
:102CB0000FB6F8947EBE0FBE6DBE0F900F900F90B2
:102CC0000F90DF91CF911F910F91FF90EF90DF90C8
:102CD000CF90BF909F908F907F906F905F904F901C
:102CE0003F902F900895CF93DF9300D000D000D075
:102CF000CDB7DEB78CE08983E7EFFBE0308121813F
:102D00002A833B83828193819C838D83830F845F9D
:102D1000820F980F9E8366E0CE0101960E94B23624
:102D20008091F50B811106C00E9482368091F50BCF
:102D30008823D1F38BEB95E00E946E358091F50BE3
:102D4000882391F08091FC0C81110EC08091DB0CE6
:102D5000813051F48091640C811106C00E94AC3521
:102D600085E080937D0D09C00E94B43580917D0D72
:102D7000882319F0815080937D0D26960FB6F89424
:102D8000DEBF0FBECDBFDF91CF910895CF93DF930C
:102D900000D000D000D0CDB7DEB78CE089831A8296
:102DA0001B821C821D828E8366E0CE0101960E94EA
:102DB000B2368091F50B811106C00E948236809157
:102DC000F50B8823D1F386EC95E00E946E35809157
:102DD000F50B882391F08091FC0C81110EC080913D
:102DE000DB0C813051F48091640C811106C00E948B
:102DF000AC3585E080937D0D09C00E94B43580918B
:102E00007D0D882319F0815080937D0D26960FB695
:102E1000F894DEBF0FBECDBFDF91CF910895CF9361
:102E2000DF9300D01F92CDB7DEB79DE099838A83F0
:102E3000835F8B8363E0CE0101960E94B23680915E
:102E4000F50B811106C00E9482368091F50B882314
:102E5000D1F38091F50B882311F18091FC0C811145
:102E60001EC085E080937D0D82ED95E00E946E3559
:102E70008091640C882319F08F3F39F009C082E0FB
:102E800080937C0D0E94AC3517C00E94B03514C0F1
:102E900081EE96E00E946E350E9499350DC08FED4F
:102EA00095E00E946E350E94993580917D0D8823B2
:102EB00019F0815080937D0D0F900F900F90DF914E
:102EC000CF910895CF93DF9300D000D0CDB7DEB778
:102ED0009FE0998392E09A838B838F5E8C8364E07A
:102EE000CE0101960E94B2368091F50B811106C089
:102EF0000E9482368091F50B8823D1F380EF95E014
:102F00000E946E358091F50B8823A9F08091FC0C0E
:102F1000811111C085E080937D0D8091DB0C8130A3
:102F200051F48091640C811106C083E080937C0D84
:102F30000E94AC3509C00E94B43580917D0D882374
:102F400019F0815080937D0D0F900F900F900F908E
:102F5000DF91CF9108952F923F924F925F926F929F
:102F60007F928F929F92AF92BF92CF92DF92EF9219
:102F7000FF920F931F93CF93DF93CDB7DEB72B97BD
:102F80000FB6F894DEBF0FBECDBF2DB73EB73B875F
:102F90002A878FE0898383E08A8382E18B8363E0E1
:102FA000CE0101960E94B2368091F50B811106C0C8
:102FB0000E9482368091F50B8823D1F38091F50B26
:102FC000882309F4C5C08091FC0C8111C1C0809197
:102FD000650C8111B6C00E94E73685E080937D0DB7
:102FE0008091DB0C90E00197181619060CF0A7C031
:102FF0000F2EF4E6EF2EFCE0FF2EF02D0F2EF3E95E
:103000008F2EFDE09F2EF02DC12CD12C0F2EFEE730
:103010006F2EFDE07F2EF02DF7018081882309F4CB
:103020007DC04DB65EB6F301848190E00A962DB75F
:103030003EB7281B390B0FB6F8943EBF0FBE2DBF0D
:103040008DB79EB701969D838C838EEF95E00E948D
:103050006E35F3016481262E312CC10105962DB702
:103060003EB7281B390B0FB6F8943EBF0FBE2DBFDD
:103070008DB79EB701965C0170E080E090E00E9401
:103080005C379B01AC0160E070E080E291E40E945B
:103090004D386E837F8388879987F3018381F4019C
:1030A0006081869FB0011124072E000C880B990BBC
:1030B0000E945E372E813F81488559850E94F436F3
:1030C0000A2D1B2D910140E050E00E94433ABF922F
:1030D000AF9229ED39E03F932F939D819F93EC812F
:1030E000EF930E94C13A8C819D810E946E35F70159
:1030F00080811F928F932DE338E03F932F93BF92EF
:10310000AF920E94C13A8A2D9B2D0E946E350E947B
:1031100099350FB6F8945EBE0FBE4DBE9FEFC91A2B
:10312000D90A8091DB0CE2E0EE0EF11CFFEF8F1A62
:103130009F0A90E00197C816D9060CF46DCF84DB86
:1031400014C08BE096E00E946E350E9499350DC048
:103150008DE196E00E946E350E94993580917D0D3B
:10316000882319F0815080937D0D2A853B850FB609
:10317000F8943EBF0FBE2DBF2B960FB6F894DEBF5E
:103180000FBECDBFDF91CF911F910F91FF90EF90B8
:10319000DF90CF90BF90AF909F908F907F906F9077
:1031A0005F904F903F902F9008954F925F926F9253
:1031B0007F928F929F92AF92BF92CF92DF92EF92C7
:1031C000FF920F931F93CF93DF9300D01F92CDB741
:1031D000DEB7EDB6FEB68FE0898384E08A8383E1B3
:1031E0008B8363E0CE0101960E94B2368091F50B8D
:1031F000811106C00E9482368091F50B8823D1F39D
:103200008091F50B882309F464C08091FC0C811136
:1032100060C08091650C811151C08DB69EB60E9430
:10322000E73685E080937D0D0EE71DE0F8016481AF
:10323000A62EB12CC50105962DB73EB7281B390B1C
:103240000FB6F8943EBF0FBE2DBF8DB79EB7019647
:103250006C0170E080E090E00E945C379B01AC0163
:1032600060E070E080E291E40E944D382B013C0167
:10327000F80183816091640C869FB0011124072EB0
:10328000000C880B990B0E945E37A30192010E94EB
:10329000F4368601950140E050E00E94433A8FE207
:1032A00096E00E946E35C6010E946E350E949935E7
:1032B0000FB6F8949EBE0FBE8DBE18C088E396E090
:1032C0000E946E350E94993581E080937C0D43DE2B
:1032D0000DC085E496E00E946E350E94993580917C
:1032E0007D0D882319F0815080937D0D0FB6F894E1
:1032F000FEBE0FBEEDBE0F900F900F90DF91CF91ED
:103300001F910F91FF90EF90DF90CF90BF90AF9003
:103310009F908F907F906F905F904F900895CF9384
:10332000DF93CDB7DEB727970FB6F894DEBF0FBE99
:10333000CDBF86E596E00E946E358FE0898381E0FF
:103340008A831B821C821D828091FB0B8E83805F8F
:103350008F8367E0CE0101960E94B2368091F50B13
:10336000811106C00E9482368091F50B8823D1F32B
:103370008091F50B882391F08091FC0C81110EC097
:1033800085E080937D0D8091DB0C813039F4809154
:10339000640C811103C00E94AC3509C00E94B43591
:1033A00080917D0D882319F0815080937D0D2796A3
:1033B0000FB6F894DEBF0FBECDBFDF91CF91089559
:1033C000813021F48091FB0B816003C08091FB0B65
:1033D0008E7F613011F4826001C08D7F413011F425
:1033E000846001C08B7F8093FB0B0E94983485E63C
:1033F00096E00E946E350E94AC3591CF08958F9271
:103400009F92AF92BF92CF92DF92EF92FF920F9373
:103410001F93CF93DF93CDB7DEB7C554D1090FB655
:10342000F894DEBF0FBECDBF8FE089831A828B83F5
:1034300063E0CE0101960E94B2368091F50B8111B6
:1034400006C00E9482368091F50B8823D1F38091CB
:10345000F50B882309F4F4C08091FC0C8111F0C0B5
:103460008091DB0C823008F4F2C00E94E73685E0E0
:1034700080937D0DA4E6BDE0E0E7FDE01D92EA1734
:10348000FB07E1F78CE79DE011928E179F07E1F7AC
:103490000F2EF4E6EF2EFCE0FF2EF02DD701129652
:1034A0009C91129714968C9114970BE51DE02C912A
:1034B000F80126839783808781E796E00E946E3526
:1034C00081E69DE00E946E35F701A085D284C48418
:1034D00076856089528944893689208D928D848DC4
:1034E000B681F801B187A287D386C48675876687BF
:1034F0005787408B318B228B938B848B87EE93E0A5
:103500000E946E3584E69DE00E946E35F701A0A111
:10351000D2A0C4A076A160A552A544A536A520A935
:1035200092A984A9B68DF801B58BA68BD78AC08ED7
:10353000718F628F538F448F358F268F978F80A323
:1035400087EE93E00E946E3580E79DE00E946E3525
:10355000D701D6968C91D69725968FAF2597D8967A
:103560008C9126968FAF2697CE018C5B9F4F0E9441
:103570001832F80180839183D701DA964C91DA975B
:1035800050E060E070E0762F652F542F4427DC96E2
:103590002C91DC97422B762F652F542F4427DE96F3
:1035A0002C91422B762F652F542F44272091A40C69
:1035B000422B242F217022836A017B01F694E79429
:1035C000D794C7943C2D317033834A015B01B69484
:1035D000A79497948794B694A79497948794E82D8A
:1035E000E170D8011496EC931497689412F87695CC
:1035F0006795579547951694D1F7417015964C935A
:103600001F924F931F92EF931F923F931F922F93FE
:103610009F938F9388E796E09F938F938E010C5F23
:103620001F4F1F930F930E94C13AC8010E946E352D
:103630000E9499350FB6F894DEBF0FBECDBF07C00C
:1036400080917D0D882319F0815080937D0DCB5B97
:10365000DF4F0FB6F894DEBF0FBECDBFDF91CF9125
:103660001F910F91FF90EF90DF90CF90BF90AF90A0
:103670009F908F9008952F923F924F925F926F92FA
:103680007F928F929F92AF92BF92CF92DF92EF92F2
:10369000FF920F931F93CF93DF93CDB7DEB72B9796
:1036A0000FB6F894DEBF0FBECDBF2DB73EB73B8738
:1036B0002A878FE0898387E08A8386E18B8363E0B2
:1036C000CE0101960E94B2368091F50B811106C0A1
:1036D0000E9482368091F50B8823D1F38091F50BFF
:1036E000882309F4C5C08091FC0C8111C1C0809170
:1036F000DB0C823008F4B5C00E94E73685E0809389
:103700007D0D8091DB0C90E00197181619060CF0E6
:10371000BCC00F2EF4E6EF2EFCE0FF2EF02D0F2E96
:10372000F3E98F2EFDE09F2EF02DC12CD12C0F2E12
:10373000FEE76F2EFDE07F2EF02DF70180818823BC
:1037400009F47DC04DB65EB6F301848190E00A961F
:103750002DB73EB7281B390B0FB6F8943EBF0FBEEE
:103760002DBF8DB79EB701969D838C8388E896E028
:103770000E946E35F3016481262E312CC10105961D
:103780002DB73EB7281B390B0FB6F8943EBF0FBEBE
:103790002DBF8DB79EB701965C0170E080E090E090
:1037A0000E945C379B01AC0160E070E080E291E434
:1037B0000E944D386E837F8388879987F3018381C8
:1037C000F4016081869FB0011124072E000C880B44
:1037D000990B0E945E372E813F81488559850E9452
:1037E000F4360A2D1B2D910140E050E00E94433A2F
:1037F000BF92AF9229ED39E03F932F939D819F9324
:10380000EC81EF930E94C13A8C819D810E946E35BC
:10381000F70180811F928F932DE338E03F932F9320
:10382000BF92AF920E94C13A8A2D9B2D0E946E35A5
:103830000E9499350FB6F8945EBE0FBE4DBE9FEF45
:10384000C91AD90A8091DB0CE2E0EE0EF11CFFEF01
:103850008F1A9F0A90E00197C816D9060CF46DCF15
:1038600014C088E996E00E946E350E9499350DC01B
:1038700080EB96E00E946E350E94993580917D0D17
:10388000882319F0815080937D0D2A853B850FB6E2
:10389000F8943EBF0FBE2DBF2B960FB6F894DEBF37
:1038A0000FBECDBFDF91CF911F910F91FF90EF9091
:1038B000DF90CF90BF90AF909F908F907F906F9050
:1038C0005F904F903F902F9008952F923F924F928C
:1038D0005F926F927F928F929F92AF92BF92CF92A0
:1038E000DF92EF92FF920F931F93CF93DF93CDB7A9
:1038F000DEB72B970FB6F894DEBF0FBECDBF2DB746
:103900003EB73B872A878FE0898386E08A8385E1FB
:103910008B8363E0CE0101960E94B2368091F50B55
:10392000811106C00E9482368091F50B8823D1F365
:103930008091F50B882309F4C5C08091FC0C81119E
:10394000C1C08091DB0C823008F4B5C00E94E7361C
:1039500085E080937D0D8091DB0C90E00197181637
:1039600019060CF0BCC00F2EF4E6EF2EFCE0FF2E83
:10397000F02D0F2EF3E98F2EFDE09F2EF02DC12CA0
:10398000D12C0F2EFEE76F2EFDE07F2EF02DF701DC
:103990008081882309F47DC04DB65EB6F301848131
:1039A00090E00A962DB73EB7281B390B0FB6F89456
:1039B0003EBF0FBE2DBF8DB79EB701969D838C83F2
:1039C00085EC96E00E946E35F3016481262E312C41
:1039D000C10105962DB73EB7281B390B0FB6F894D9
:1039E0003EBF0FBE2DBF8DB79EB701965C0170E044
:1039F00080E090E00E945C379B01AC0160E070E0E9
:103A000080E291E40E944D386E837F838887998796
:103A1000F3018381F4016081869FB0011124072E98
:103A2000000C880B990B0E945E372E813F814885E0
:103A300059850E94F4360A2D1B2D910140E050E07B
:103A40000E94433ABF92AF9229ED39E03F932F9302
:103A50009D819F93EC81EF930E94C13A8C819D815F
:103A60000E946E35F70180811F928F932DE338E01D
:103A70003F932F93BF92AF920E94C13A8A2D9B2D04
:103A80000E946E350E9499350FB6F8945EBE0FBE47
:103A90004DBE9FEFC91AD90A8091DB0CE2E0EE0E11
:103AA000F11CFFEF8F1A9F0A90E00197C816D90604
:103AB0000CF46DCF14C083ED96E00E946E350E9429
:103AC00099350DC089EE96E00E946E350E949935B9
:103AD00080917D0D882319F0815080937D0DCBDD81
:103AE0002A853B850FB6F8943EBF0FBE2DBF2B969F
:103AF0000FB6F894DEBF0FBECDBFDF91CF911F91FF
:103B00000F91FF90EF90DF90CF90BF90AF909F907C
:103B10008F907F906F905F904F903F902F9008957F
:103B20002F923F924F925F926F927F928F929F92CD
:103B3000AF92BF92CF92DF92EF92FF920F931F93BB
:103B4000CF93DF93CDB7DEB767970FB6F894DEBF9C
:103B50000FBECDBF8DB69EB68FE0898385E08A8388
:103B600084E18B8363E0CE0101960E94B23680919E
:103B7000F50B811106C00E9482368091F50B8823D7
:103B8000D1F38091F50B882309F438C28091FC0CA5
:103B9000811134C28091DB0C833008F428C28091FB
:103BA000DB0C815080FD23C22DB73EB73F8B2E8B9F
:103BB0000E94E73685E080937D0D6090DB0C712CD0
:103BC000C301880F991FEDB7FEB7E81BF90B0FB6BD
:103BD000F894FEBF0FBEEDBF0DB71EB70F5F1F4FAE
:103BE0004091DB0C50E0440F551F64E67CE0C801B7
:103BF0000E94823AF1E06F1A710809F4F0C168017D
:103C0000A12CB12C0F2EF1EA4F2EF4E05F2EF02DF7
:103C10007E0124E0E20EF11CF60130803C8A228015
:103C20002D8ACE0144960E9418328C011F922F9249
:103C30001F923F925F924F922CEF36E03F932F936B
:103C4000FF92EF920E94C13AEDB7FEB73A960FB6D7
:103C5000F894FEBF0FBEEDBF0E3FF1E01F0709F461
:103C600048C08091CA0B882319F01092CA0B2DDE30
:103C7000003921E01207A1F164F4083C110501F1BB
:103C80000C3281E0180729F10436110509F052C001
:103C90000EC0083092E01907E1F10835E2E01E0796
:103CA00009F440C00E3F114009F044C022C088E032
:103CB000E8E0F7E0D70101900D928A95E1F73AC06C
:103CC0008AE0E0E1F7E0D70101900D928A95E1F7F3
:103CD00031C02FE43BE4F7013183208312822AC0F4
:103CE0008EE0EAE1F7E0D70101900D928A95E1F7C5
:103CF00021C08EE0E8E2F7E0D70101900D928A95AD
:103D0000E1F78091CA0B8130A9F031E03093CA0B02
:103D100011C08DE0E6E3F7E0D70101900D928A959E
:103D2000E1F708C08AE0E3E4F7E0D70101900D92E3
:103D30008A95E1F782E1381609F4AAC0831538F0B4
:103D400090E1391681F0E1E13E16E9F135C1F4E187
:103D50003F1609F4F4C03F1608F4D9C025E1321625
:103D600009F4F8C029C131E0231691F0231638F088
:103D700082E02816B1F093E02916E1F01DC186E03B
:103D8000EAE2F4E0D70101900D928A95E1F714C1BF
:103D900087E0EDE4F7E0D70101900D928A95E1F715
:103DA0000BC187E0E4E5F7E0D70101900D928A9519
:103DB000E1F702C18BE0EBE5F7E0D70101900D924E
:103DC0008A95E1F7F9C0822D90E08535910508F0DC
:103DD000F3C0FC01EB56FF4F0C942B3A88E0E6E66B
:103DE000F7E0D70101900D928A95E1F7E5C089E0EF
:103DF000EEE6F7E0D70101900D928A95E1F7DCC07D
:103E000088E0E7E7F7E0D70101900D928A95E1F7A6
:103E1000D3C088E0EFE7F7E0D70101900D928A95D3
:103E2000E1F7CAC08AE0E7E8F7E0D70101900D9218
:103E30008A95E1F7C1C08AE0E1E9F7E0D701019096
:103E40000D928A95E1F7B8C08AE0EBE9F7E0D70177
:103E500001900D928A95E1F7AFC08AE0E5EAF7E0BC
:103E6000D70101900D928A95E1F7A6C088E0EFEAAC
:103E7000F7E0D70101900D928A95E1F79DC088E0A7
:103E8000E7EBF7E0D70101900D928A95E1F794C036
:103E9000E1E32E1609F1E21530F0222059F0F0E3AB
:103EA0002F1689F089C020E42216F9F030E5231698
:103EB00029F182C087E0EFEBF7E0D70101900D9286
:103EC0008A95E1F779C086E0E6ECF7E0D70101904A
:103ED0000D928A95E1F770C087E0ECECF7E0D7012E
:103EE00001900D928A95E1F767C086E0E3EDF7E077
:103EF000D70101900D928A95E1F75EC088E0E9ED67
:103F0000F7E0D70101900D928A95E1F755C0222084
:103F100021F080E1281651F04FC087E0E1EEF7E094
:103F2000D70101900D928A95E1F746C088E0E8EE4E
:103F3000F7E0D70101900D928A95E1F73DC021107D
:103F40003BC088E0E0EFF7E0D70101900D928A9541
:103F5000E1F732C092E02916A9F0921518F022205C
:103F600041F02AC0E3E02E16B1F0F4E02F16E1F0A4
:103F700023C087E0E8EFF7E0D70101900D928A9522
:103F8000E1F71AC087E0EFEFF7E0D70101900D925B
:103F90008A95E1F711C088E0E6E0F8E0D7010190EA
:103FA0000D928A95E1F708C087E0EEE0F8E0D701CE
:103FB00001900D928A95E1F785E198E00E946E35B7
:103FC000C7010E946E350E94993522E0A20EB11CF5
:103FD00034E0C30ED11CA614B70408F41DCE8E899C
:103FE0009F890FB6F8949EBF0FBE8DBF14C08EE19F
:103FF00098E00E946E350E9499350DC08BE298E0E2
:104000000E946E350E94993580917D0D882319F0AC
:10401000815080937D0D0FB6F8949EBE0FBE8DBE6D
:1040200067960FB6F894DEBF0FBECDBFDF91CF917C
:104030001F910F91FF90EF90DF90CF90BF90AF90C6
:104040009F908F907F906F905F904F903F902F90B8
:1040500008952F923F924F925F926F927F928F922C
:104060009F92AF92BF92CF92DF92EF92FF920F9307
:104070001F93CF93DF93CDB7DEB7C256D1090FB6EA
:10408000F894DEBF0FBECDBF2DB73EB7A3963FAFAE
:104090002EAFA397A1963FAF2EAFA19785E0809357
:1040A0007D0DE090DB0CF12CC701880F991FEDB757
:1040B000FEB7E81BF90B0FB6F894FEBF0FBEEDBFBD
:1040C0008DB79EB701965C014091DB0C50E0440F28
:1040D000551F64E67CE00E94823A4701F1E08F1AA6
:1040E000910809F461C2412C512C9E012F5F3F4F72
:1040F00019013E0131E4630E711C8201000F111F92
:104100000A0D1B1DF801F0808F2D82958695877012
:104110008130B9F41F928F2D8F718F9326E338E091
:104120003F932F933F922F920E94C13AC1010E9468
:104130006E350E9499350F900F900F900F900F9051
:104140000F908F2D82958F7009F0CBC0EF2DEF70FF
:104150008E2F90E0FC013197ED30F10508F0ACC0F6
:10416000E651FF4F0C942B3A8AE0EEE7F4E0D301DE
:1041700001900D928A95E1F79FC08BE0E8E8F4E0AA
:10418000D30101900D928A95E1F796C089E0E1E4B0
:10419000F8E0D30101900D928A95E1F78DC08EE091
:1041A000EAE4F8E0D30101900D928A95E1F784C02A
:1041B0008BE0E8E5F8E0D30101900D928A95E1F7F4
:1041C0007BC08AE0E3E6F8E0D30101900D928A9586
:1041D000E1F772C088E0EDE6F8E0D30101900D92BE
:1041E0008A95E1F769C089E0E7E2F4E0D301019044
:1041F0000D928A95E1F760C08AE0E5E7F8E0D30127
:1042000001900D928A95E1F757C085E0EDE2F3E069
:10421000D30101900D928A95E1F74EC0CE018F5BDC
:104220009F4F2AE0EAE3F4E0DC0101900D922A9529
:10423000E1F7ECE7FDE021E0208325E021839F9377
:104240008F938FE798E09F938F938E010F5F1F4F9F
:104250001F930F930E94C13AC8010E946E350E94BD
:1042600048120F900F900F900F900F900F90809129
:104270007E0D823018F0C3D852D852DC26DB0E9463
:104280002414A196EEADFFADA1970FB6F894FEBF32
:104290000FBEEDBF92C188E0EEE8F8E0D3010190D7
:1042A0000D928A95E1F708C088E0EBE6F4E0D301CF
:1042B00001900D928A95E1F77F926F9226E938E09E
:1042C0003F932F933F922F920E94C13AC1010E94C7
:1042D0006E350E9499350F900F900F900F900F90B0
:1042E0000F90FF200CF092C0EDB7FEB76B96FFAFBA
:1042F000EEAF6B97FFEF4F1A5F0AF801E280609113
:10430000820D262F30E069963FAF2EAF6997C90125
:104310000596EDB7FEB7E81BF90B0FB6F894FEBF94
:104320000FBEEDBF2DB73EB72F5F3F4F67963FAF34
:104330002EAF67978F2D8F70C82ED12C70E080E044
:1043400090E00E945C379B01AC0160E070E080E28D
:1043500091E40E944D386F966CAF7DAF8EAF9FAFEA
:104360006F978091810DF601E258F24F6589869F23
:10437000B0011124072E000C880B990B0E945E37A8
:104380006F962CAD3DAD4EAD5FAD6F970E94F4368C
:1043900066960FAD669767961FAD679769962EADC7
:1043A0003FAD699740E050E00E94433A1F92EF9280
:1043B0008F2D807790E0929582958F7089279F70DE
:1043C00089279F938F9367963FAD67973F93669634
:1043D0008FAD66978F93C60101969F938F93E3EA03
:1043E000F8E0FF93EF933F922F920E94C13AC101F0
:1043F0000E946E350E9499356B968EAD9FAD6B977E
:104400000FB6F8949EBF0FBE8DBFC7C08F2D82958B
:10441000869586958370813009F0BFC0EDB7FEB7F1
:104420006B96FFAFEEAF6B97FFEF4F1A5F0AF80185
:10443000E2806091820D262F30E069963FAF2EAF6B
:104440006997C9010596EDB7FEB7E81BF90B0FB6E2
:10445000F894FEBF0FBEEDBF2DB73EB72F5F3F4FA5
:1044600067963FAF2EAF67978F2D8F70C82ED12CD8
:1044700070E080E090E00E945C379B01AC0160E05E
:1044800070E080E291E40E944D386F966CAF7DAF92
:104490008EAF9FAF6F978091810DF601E258F24F7A
:1044A0006589869FB0011124072E000C880B990B9B
:1044B0000E945E376F962CAD3DAD4EAD5FAD6F97F0
:1044C0000E94F43666960FAD669767961FAD6797A4
:1044D00069962EAD3FAD699740E050E00E94433AA7
:1044E0008F2D807390E0929582958F7089279F70B1
:1044F00089278130910599F01CF4892B39F027C068
:1045000082309105A9F00397D1F021C088E0EDEB4E
:10451000F8E0D30101900D928A95E1F718C085E08B
:10452000E5ECF8E0D30101900D928A95E1F70FC018
:104530002EE431E4F30131832083128208C087E046
:10454000E6EDF4E0D30101900D928A95E1F71F9218
:10455000EF927F926F9267963FAD67973F93669613
:104560008FAD66978F93C60101969F938F93EAEC68
:10457000F8E0FF93EF933F922F920E94C13AC1015E
:104580000E946E350E9499356B968EAD9FAD6B97EC
:104590000FB6F8949EBF0FBE8DBF9FEF491A590A00
:1045A0004814590408F4A9CDA196EEADFFADA1972A
:1045B0000FB6F894FEBF0FBEEDBFA3962EAD3FAD74
:1045C000A3970FB6F8943EBF0FBE2DBFCE59DF4F55
:1045D0000FB6F894DEBF0FBECDBFDF91CF911F9114
:1045E0000F91FF90EF90DF90CF90BF90AF909F9092
:1045F0008F907F906F905F904F903F902F90089595
:104600002F923F924F925F926F927F928F929F92E2
:10461000AF92BF92CF92DF92EF92FF920F931F93D0
:10462000CF93DF93CDB7DEB7C057D1090FB6F8945B
:10463000DEBF0FBECDBFE82E2DB73EB7AF963FAF62
:104640002EAFAF97811104C081E7898B8A8B03C09D
:1046500089E5898B8A8B62E0CE0141960E94B23651
:104660008091F50B811106C00E9482368091F50B76
:104670008823D1F38091F50B882309F4B3C180918D
:10468000FC0C8111AFC18091DB0C823008F4C8C1F1
:104690000E94E736F12CC7010E94D33186E38E9D3C
:1046A00080018F9D100D1124C8018D55924F4C0132
:1046B0000F2EF4E6AF2EFCE0BF2EF02DF501808129
:1046C000F4018083F5018281A4968FAFA497848141
:1046D000A5968FAFA597CE018D599F4F0E94183296
:1046E000F40192838183F501D680F401D382F50130
:1046F0006085F4016483F5018285F4018583F50109
:10470000448550E0542F44278685482B980127552F
:10471000324F3901F90180E090E0A1E0B0E0CC2413
:10472000C394B12C9D01082E02C0220F331F0A949E
:10473000E2F7242335237C2D232B09F47B2D719361
:1047400001968031910571F7E4E6FCE0408950E084
:10475000542F44278289482BF801E754F24F80E018
:1047600090E0A1E0B0E0CC24C394B12C9D01082ED0
:1047700002C0220F331F0A94E2F7242335237C2D35
:10478000232B09F47B2D719301968031910571F7EC
:104790008091DB0C90E001970B979CF0E8E7FCE040
:1047A000D801A453B24F2AE030E080818D932F5F6F
:1047B0003F4F8091DB0C329690E001972817390724
:1047C000A4F3862E912C8DB79EB7E1969FAF8EAF46
:1047D000E197C4010596EDB7FEB7E81BF90B0FB6DC
:1047E000F894FEBF0FBEEDBF2DB73EB72F5F3F4F12
:1047F000590170E080E090E00E945C379B01AC01C1
:1048000060E070E080E291E40E944D381B012C01D1
:104810006D2D70E080E090E00E945E37A201910172
:104820000E94F4360A2D1B2D940140E050E00E94B6
:10483000433A27013FEF431A530ABF92AF9286E3F0
:104840008E9DF0018F9DF00D1124ED55F24F828168
:104850008F9381818F9380811F928F935F924F926C
:1048600081EE98E09F938F938E010D5E1F4F1F93F3
:104870000F930E94C13AC8010E946E350E9499357B
:104880008DB79EB70C960FB6F8949EBF0FBE8DBF26
:10489000212C312C26E32E9DC0012F9D900D11243B
:1048A0008D55924FFC013496AB96FFAFEEAFAB97B0
:1048B0009C012D5F3F4FAD963FAF2EAFAD97ADB68C
:1048C000BEB6AB96EEADFFADAB976081C62ED12CD8
:1048D000C6010A962DB73EB7281B390B0FB6F894C0
:1048E0003EBF0FBE2DBF8DB79EB701964C01C601CE
:1048F0004C96EDB7FEB7E81BF90B0FB6F894FEBF68
:104900000FBEEDBF2DB73EB72F5F3F4F790170E06F
:1049100080E090E00E945C379B01AC0160E070E0B9
:1049200080E291E40E944D38A9966CAF7DAF8EAFC6
:104930009FAFA997AD96EEADFFADAD978081F30126
:1049400060A1869FB0011124072E000C880B990BE3
:104950000E945E37A9962CAD3DAD4EAD5FADA997D7
:104960000E94F436082D192D960140E050E00E9477
:10497000433AFFEF2F1A3F0AF30180892FEF621AA3
:10498000720A1F928F9381E090E02081211180E0D4
:104990009F938F939F928F923F922F925F924F920D
:1049A00083EF98E09F938F93FF92EF920E94C13A1A
:1049B0008E2D9F2D0E946E350E9499350FB6F8946A
:1049C000BEBE0FBEADBEF0E12F16310409F077CFA9
:1049D000E1962EAD3FADE1970FB6F8943EBF0FBE06
:1049E0002DBF1EC0F12CC70101969F938F938CE0C1
:1049F00099E09F938F938E010F5F1F4F1F930F932B
:104A00000E94C13AC8010E946E350E949935C701C3
:104A10000E94EF310F900F900F900F900F900F901A
:104A2000AF968EAD9FADAF970FB6F8949EBF0FBEF9
:104A30008DBFC059DF4F0FB6F894DEBF0FBECDBF9C
:104A4000DF91CF911F910F91FF90EF90DF90CF906A
:104A5000BF90AF909F908F907F906F905F904F909E
:104A60003F902F9008952F923F924F925F926F92B6
:104A70007F928F929F92AF92BF92CF92DF92EF92EE
:104A8000FF920F931F93CF93DF93CDB7DEB7C65638
:104A9000D1090FB6F894DEBF0FBECDBF082F2DB6DB
:104AA0003EB6811104C082E7898B8A8B03C08AE5F8
:104AB000898B8A8B62E0CE0141960E94B23680914A
:104AC000F50B811106C00E9482368091F50B882378
:104AD000D1F38091F50B882309F419C18091FC0C66
:104AE000811115C18091DB0C823008F42EC10E9427
:104AF000E73610E0C8010E94D331E4E6FCE0808193
:104B000090E0982F882722815C01A22A8091DB0CFB
:104B100090E0019703970CF418C16894EE24E1F833
:104B2000F12C26E3209FC001219F900D11249C01B0
:104B30002D55324F2901C9010496A5969FAF8EAF1E
:104B4000A597F9013396A796FFAFEEAFA797980107
:104B50002F5F3F4F6F963FAF2EAF6F97CE014396BB
:104B60006B969FAF8EAF6B97C70102976C011AF4DB
:104B7000EFEFCE1ADE0AD594C794F201EC0DFD1DBD
:104B800086818111B8C06DB67EB6A596EEADFFAD3B
:104B9000A5976081862E912CC40105962DB73EB74E
:104BA000281B390B0FB6F8943EBF0FBE2DBF8DB733
:104BB0009EB701966D969FAF8EAF6D9770E080E0C7
:104BC00090E00E945C379B01AC0160E070E080E205
:104BD00091E40E944D38A3966CAF7DAF8EAF9FAF2E
:104BE000A397A796EEADFFADA7978081F201EE0DDA
:104BF000FF1D66A1869FB0011124072E000C880BB3
:104C0000990B0E945E37A3962CAD3DAD4EAD5FADC6
:104C1000A3970E94F4366C960FAD6C976D961FADFE
:104C20006D97940140E050E00E94433AF701EE0F87
:104C3000FF1FEC59F34F008110E0102F0027FFEF0A
:104C4000EF1AFF0AF701EE0FFF1FEC59F34F8081B7
:104C5000082B21E030E002C0220F331FCA94E2F794
:104C60006901C9018A219B219F938F931F930F9301
:104C70006D963FAD6D973F936C968FAD6C978F930C
:104C80006F969FAD6F979F936E96EFAD6E97EF9374
:104C900028E139E03F932F936B969FAD6B979F93DD
:104CA0006A96EFAD6A97EF930E94C13A2DB73EB76F
:104CB000245F3F4F0FB6F8943EBF0FBE2DBF012BB0
:104CC00079F481E090E0CA94CD2811F080E090E082
:104CD0008A219B21892B21F087E392E00E946E3587
:104CE000CE0143960E946E350E9499350FB6F89416
:104CF0007EBE0FBE6DBE8FEFE81AF80A8091DB0C06
:104D000090E00197E816F9060CF42ECF1EC010E0D3
:104D1000C80101969F938F938BE299E09F938F93A5
:104D2000FE0131967F01FF93EF930E94C13AC701C4
:104D30000E946E350E949935C8010E94EF310F9094
:104D40000F900F900F900F900F900FB6F8943EBEFB
:104D50000FBE2DBECA59DF4F0FB6F894DEBF0FBE8F
:104D6000CDBFDF91CF911F910F91FF90EF90DF901A
:104D7000CF90BF90AF909F908F907F906F905F90FB
:104D80004F903F902F9008952F923F924F925F92B5
:104D90006F927F928F929F92AF92BF92CF92DF924B
:104DA000EF92FF920F931F93CF93DF93CDB7DEB7B0
:104DB00029970FB6F894DEBF0FBECDBF8987962E18
:104DC000842E4DB65EB62DB63EB621E0421317C016
:104DD000E82EF12C81E090E02FEF260F02C0880F23
:104DE000991F2A95E2F7F701EE0FFF1FEE0DFF1D49
:104DF000E151F44F20813181822B932B19C03985E9
:104E0000E32EF12C81E090E02FEF260F02C0880FF7
:104E1000991F2A95E2F780959095F701EE0FFF1FF5
:104E2000EE0DFF1DE151F44F208131818223932348
:104E3000F701EE0FFF1FEE0DFF1DE151F44F9183BF
:104E400080830E94283586E38E9D80018F9D100D02
:104E500011240D55124FF8016481A62EB12CC50105
:104E600049962DB73EB7281B390B0FB6F8943EBFB5
:104E70000FBE2DBF8DB79EB701966C01C50105967B
:104E8000EDB7FEB7E81BF90B0FB6F894FEBF0FBEE7
:104E9000EDBF2DB73EB72F5F3F4F390170E080E087
:104EA00090E00E945C379B01AC0160E070E080E222
:104EB00091E40E944D386D837E838F839887E92D1E
:104EC000F0E0E00FF11F85A1F8016381869FB0013A
:104ED0001124072E000C880B990B0E945E372D8140
:104EE0003E814F8158850E94F436062D172D95017D
:104EF00040E050E00E94433A81E090E0881280E078
:104F00009F938F937F926F921F929F92C7010196FA
:104F10009F938F9388E399E09F938F93DF92CF9233
:104F20000E94C13A8C2D9D2D0E946E350E94AC3599
:104F30002DB73EB7245F3F4F0FB6F8943EBF0FBE6C
:104F40002DBF3985311102C08CE501C084E789830A
:104F5000F701EE0FFF1FEE0DFF1DE151F44F9081A1
:104F600021812A839B83920F890F8C8364E0CE0179
:104F700001960E94B2368091F50B811106C00E9405
:104F800082368091F50B8823D1F38091F50B88232D
:104F900079F08091FC0C81110BC0C7010E94D331C4
:104FA0008091DB0C813021F48091640C882349F0DE
:104FB000C7010E94EF310FB6F8943EBE0FBE2DBE62
:104FC00005C00FB6F8943EBE0FBE2DBE0FB6F894C6
:104FD0005EBE0FBE4DBE29960FB6F894DEBF0FBE63
:104FE000CDBFDF91CF911F910F91FF90EF90DF9098
:104FF000CF90BF90AF909F908F907F906F905F9079
:105000004F903F902F900895EF92FF920F931F9330
:10501000CF93DF93CDB7DEB766970FB6F894DEBFB8
:105020000FBECDBF082F811103C085E7898B02C059
:105030008DE5898B1A8A6B8B4C8B5D8B460F69894A
:10504000460F540F5E8B66E0CE0141960E94B23649
:105050008091F50B811106C00E9482369091F50B6C
:105060009923D1F38091F50B8823D9F18091FC0C21
:10507000811137C010E0C8010E94D331C8010196E8
:105080009F938F938FE499E09F938F93CE01019626
:105090007C019F938F930E94C13AC7010E946E3595
:1050A0000F900F900F900F900F900F908091640CC5
:1050B000882319F08F3F59F00DC0000F111FF80120
:1050C000E55BF14F82E080830E94AC3528C00E94EE
:1050D000B03525C081EA94E00E946E350E94993572
:1050E0001EC010E0C80101969F938F938EE599E052
:1050F0009F938F93CE0101967C019F938F930E9483
:10510000C13AC7010E946E350E949935C8010E94BC
:10511000EF310F900F900F900F900F900F906696B9
:105120000FB6F894DEBF0FBECDBFDF91CF911F91B8
:105130000F91FF90EF900895EF92FF920F931F93BE
:10514000CF93DF93CDB7DEB765970FB6F894DEBF88
:105150000FBECDBF082F811103C085E7898B02C028
:105160008DE5898B81E08A8B6B8B7C8B89898F5F46
:10517000680F760F7D8B65E0CE0141960E94B236B6
:105180008091F50B811106C00E9482369091F50B3B
:105190009923D1F38091F50B8823D9F18091FC0CF0
:1051A000811137C010E0C8010E94D331C8010196B7
:1051B0009F938F9381E799E09F938F93CE01019600
:1051C0007C019F938F930E94C13AC7010E946E3564
:1051D0000F900F900F900F900F900F908091640C94
:1051E000882319F08F3F59F00DC0000F111FF801EF
:1051F000E55BF14F83E080830E94AC3528C00E94BC
:10520000B03525C081EA94E00E946E350E94993540
:105210001EC010E0C80101969F938F9381E899E02A
:105220009F938F93CE0101967C019F938F930E9451
:10523000C13AC7010E946E350E949935C8010E948B
:10524000EF310F900F900F900F900F900F90659689
:105250000FB6F894DEBF0FBECDBFDF91CF911F9187
:105260000F91FF90EF9008952F923F924F925F928F
:105270006F927F928F929F92AF92BF92CF92DF9266
:10528000EF92FF920F931F93CF93DF93CDB7DEB7CB
:10529000AF970FB6F894DEBF0FBECDBFD82E4DB678
:1052A0005EB6811103C086E789A302C08EE589A39B
:1052B0001AA289A18BA363E0CE0181960E94B23627
:1052C0008091F50B811106C00E9482368091F50B0A
:1052D0008823D1F38091F50B882309F40AC18091CA
:1052E000FC0C811106C18091650C8111E6C00E9401
:1052F000E7360D2D10E0C8010E94D3318091DB0C00
:1053000090E00197181619060CF0D4C0E12CF12C8E
:1053100098012F5F3F4F3DA32CA3CE0101963C0186
:1053200026E3209FC001219F900D1124FC01ED5523
:10533000F24F1F019F012C5F3F4F3BA72AA7CF01D0
:1053400003969DA78CA75FA64EA65D2CF701EE0FD6
:10535000FF1FEC59F34F8081882309F49DC0CDB61F
:10536000DEB68701FF2014F40F5F1F4F15950795D8
:10537000C80101969F938F939DA19F93ECA1EF93FA
:1053800025E939E03F932F937F926F920E94C13AB3
:10539000C3010E946E35EAA5FBA56081A62EB12C43
:1053A000C50105962DB73EB7285F3F4F0FB6F8945D
:1053B0003EBF0FBE2DBFEDB7FEB7E81BF90B0FB612
:1053C000F894FEBF0FBEEDBF2DB73EB72F5F3F4F26
:1053D000490170E080E090E00E945C379B01AC01E5
:1053E00060E070E080E291E40E944D386EA37FA3FC
:1053F00088A799A7ECA5FDA58081F101E00FF11F19
:1054000066A1869FB0011124072E000C880B990B12
:105410000E945E372EA13FA148A559A50E94F436EF
:10542000082D192D950140E050E00E94433A9F92CB
:105430008F9229ED39E03F932F937F926F920E94D4
:10544000C13AC3010E946E35F701EE0FFF1FEC5900
:10545000F34F808190E0982F8827EFEFEE1AFE0A35
:10546000F701EE0FFF1FEC59F34F2081822B9F9322
:105470008F932DE338E03F932F939F928F920E945A
:10548000C13A882D992D0E946E350E9499350FB62C
:10549000F894DEBE0FBECDBE9FEFE91AF90A8091E7
:1054A000DB0C90E00197E816F9060CF44FCFD52CF1
:1054B0004EA45FA48D2DD7DA3AC08D2D90E00196D1
:1054C0009F938F9388EA99E09F938F938E010F5F4C
:1054D0001F4F1F930F930E94C13AC8010E946E355F
:1054E0000E9499350F900F900F900F900F900F9092
:1054F0001EC0ED2CF12CC70101969F938F938CEB6E
:1055000099E09F938F938E010F5F1F4F1F930F930F
:105510000E94C13AC8010E946E350E949935C701A8
:105520005ED70F900F900F900F900F900F900FB6C7
:10553000F8945EBE0FBE4DBEAF960FB6F894DEBFB8
:105540000FBECDBFDF91CF911F910F91FF90EF90D4
:10555000DF90CF90BF90AF909F908F907F906F9093
:105560005F904F903F902F9008952F923F924F92CF
:105570005F926F927F928F929F92AF92BF92CF92E3
:10558000DF92EF92FF920F931F93CF93DF93CDB7EC
:10559000DEB7A1970FB6F894DEBF0FBECDBFE82EE1
:1055A000CDB6DEB6811103C086E78F8F02C08EE5CF
:1055B0008F8F81E088A38F8D8F5F89A363E0CE01F9
:1055C0004F960E94B2368091F50B811106C00E9461
:1055D00082369091F50B9923D1F38091F50B8823B6
:1055E00009F494C08091FC0C811190C08091650CED
:1055F000811165C08DB69EB60E94E736F12CC701B9
:10560000D2D6E4E6FCE0008110E0102F0027828172
:10561000082B86E38E9DF0018F9DF00D1124ED5532
:10562000F24F6481A62EB12CC50105962DB73EB769
:10563000281B390B0FB6F8943EBF0FBE2DBF8DB798
:105640009EB701961C0170E080E090E00E945C37FC
:105650009B01AC0160E070E080E291E40E944D3873
:105660002B013C01B80180E090E00E945C37A3016F
:1056700092010E94F436022D132D950140E050E076
:105680000E94433A3F922F929FEFE91AF90AFF9244
:10569000EF9280ED99E09F938F938E010F5F1F4FE4
:1056A0001F930F930E94C13AC8010E946E350E9459
:1056B00099350FB6F8949EBE0FBE8DBE44C00E2D18
:1056C00010E0C80101969F938F938DED99E09F9311
:1056D0008F939E012F5F3F4F59013F932F930E945D
:1056E000C13AC5010E946E350E949935000F111F05
:1056F000F801E55BF14F81E080838E2DB5DD0F90E1
:105700000F900F900F900F900F901DC0F12CC701BC
:1057100001969F938F938CEE99E09F938F938E01C8
:105720000F5F1F4F1F930F930E94C13AC8010E9441
:105730006E350E949935C70152D60F900F900F9089
:105740000F900F900F900FB6F894DEBE0FBECDBE37
:10575000A1960FB6F894DEBF0FBECDBFDF91CF91FB
:105760001F910F91FF90EF90DF90CF90BF90AF907F
:105770009F908F907F906F905F904F903F902F9071
:1057800008958F929F92AF92BF92CF92DF92EF9245
:10579000FF920F931F93CF93DF93CDB7DEB7C5541E
:1057A000D1090FB6F894DEBF0FBECDBF182FE82E7B
:1057B000F12C26E3829FF0011124ED55F24F8081F8
:1057C000882309F4F8C0111105C087E722968FAF2E
:1057D000229704C08FE522968FAF229723961FAEA3
:1057E000239722968FAD229724968FAF249763E05C
:1057F000CE018F5B9F4F0E94B2368091F50B8111D5
:1058000006C00E9482368091F50B8823D1F38091E7
:10581000F50B882309F4EBC08091FC0C8111E7C0E3
:105820008091DB0C823008F4E2C00E94E736C701A9
:10583000BAD58EE18E9DF0018F9DF00D1124E15FB0
:10584000F14F138214821582819FC0011124DC0163
:10585000AB5EB14FFC01EF5DF14F1D92AE17BF077C
:10586000E1F7835D914F1192E817F907E1F704E63C
:105870001CE0F801928184812EE12E9D60012F9D14
:10588000D00C112496012E5E314F49012081F40184
:10589000208391838283FFEFEF1AFF0AFF92EF923A
:1058A0008FEF99E09F938F939E012F5F3F4F590198
:1058B0003F932F930E94C13AC5010E946E35C401E7
:1058C0000E946E35F801A085928484847685608973
:1058D000528944893689208D928D848DF601EB5E44
:1058E000F14F7F01F801B681F701B083A183928265
:1058F00083827483658356834783308721879287A9
:10590000838787EE93E00E946E35C7010E946E3553
:10591000F801A0A192A084A076A160A552A544A5FB
:1059200036A520A992A984A9F601EF5DF14F7F0168
:10593000F801B68DF701B083A183928283827483CC
:10594000658356834783308721879287838787EED5
:1059500093E00E946E35C7010E946E35F80186A95A
:1059600025968FAF259780AD26968FAF2697CE01CF
:105970008C5B9F4F5DD5F601E15FF14F8083918392
:105980002091A40C217022831F922F939F938F93B9
:1059900083EF93E09F938F93BF92AF920E94C13A9F
:1059A000C5010E946E350E9499350FB6F894DEBF8E
:1059B0000FBECDBF1CC0C70101969F938F9387E098
:1059C0009AE09F938F938E010F5F1F4F1F930F934A
:1059D0000E94C13AC8010E946E350E949935C701E4
:1059E000FED40F900F900F900F900F900F90CB5B05
:1059F000DF4F0FB6F894DEBF0FBECDBFDF91CF9162
:105A00001F910F91FF90EF90DF90CF90BF90AF90DC
:105A10009F908F9008952F923F924F925F926F9236
:105A20007F928F929F92AF92BF92CF92DF92EF922E
:105A3000FF920F931F93CF93DF93CDB7DEB7C1587B
:105A4000D1090FB6F894DEBF0FBECDBFE4968FAF7D
:105A5000E4972DB73EB7C058DF4F39832883C0582D
:105A6000D040C258DF4F39832883CE57D04090E0D2
:105A7000E1969FAF8EAFE19796D4E090DB0CF12CCE
:105A8000C701880F991FEDB7FEB7E81BF90B0FB6DA
:105A9000F894FEBF0FBEEDBF8DB79EB701963C01D7
:105AA0004091DB0C50E0440F551F64E67CE00E94FF
:105AB000823A6701F1E0CF1AD10809F400C2212C23
:105AC000312C26E3E1964EAD5FADE197249FC001F6
:105AD000259F900D1124FC01ED55F24FE396FFAF89
